{
  "contractName": "DocVerify",
  "abi": [
    {
      "constant": true,
      "inputs": [],
      "name": "creator",
      "outputs": [
        {
          "name": "",
          "type": "address"
        }
      ],
      "payable": false,
      "stateMutability": "view",
      "type": "function",
      "signature": "0x02d05d3f"
    },
    {
      "constant": true,
      "inputs": [
        {
          "name": "",
          "type": "bytes32"
        }
      ],
      "name": "documentHashMap",
      "outputs": [
        {
          "name": "owner",
          "type": "address"
        },
        {
          "name": "date",
          "type": "uint256"
        }
      ],
      "payable": false,
      "stateMutability": "view",
      "type": "function",
      "signature": "0x06ae19a2"
    },
    {
      "constant": true,
      "inputs": [],
      "name": "numDocuments",
      "outputs": [
        {
          "name": "",
          "type": "uint256"
        }
      ],
      "payable": false,
      "stateMutability": "view",
      "type": "function",
      "signature": "0x41affd45"
    },
    {
      "inputs": [],
      "payable": false,
      "stateMutability": "nonpayable",
      "type": "constructor",
      "signature": "constructor"
    },
    {
      "constant": false,
      "inputs": [
        {
          "name": "hash",
          "type": "bytes32"
        }
      ],
      "name": "newDocument",
      "outputs": [
        {
          "name": "success",
          "type": "bool"
        }
      ],
      "payable": false,
      "stateMutability": "nonpayable",
      "type": "function",
      "signature": "0x2847a7af"
    },
    {
      "constant": true,
      "inputs": [
        {
          "name": "hash",
          "type": "bytes32"
        }
      ],
      "name": "documentExists",
      "outputs": [
        {
          "name": "exists",
          "type": "bool"
        }
      ],
      "payable": false,
      "stateMutability": "view",
      "type": "function",
      "signature": "0xcbfe6d41"
    },
    {
      "constant": true,
      "inputs": [
        {
          "name": "hash",
          "type": "bytes32"
        }
      ],
      "name": "getDocument",
      "outputs": [
        {
          "name": "date",
          "type": "uint256"
        },
        {
          "name": "owner",
          "type": "address"
        }
      ],
      "payable": false,
      "stateMutability": "view",
      "type": "function",
      "signature": "0xb10d6b41"
    },
    {
      "constant": true,
      "inputs": [],
      "name": "getNumDocs",
      "outputs": [
        {
          "name": "numDocs",
          "type": "uint256"
        }
      ],
      "payable": false,
      "stateMutability": "view",
      "type": "function",
      "signature": "0x9bf52776"
    }
  ],
  "bytecode": "0x608060405234801561001057600080fd5b50336000806101000a81548173ffffffffffffffffffffffffffffffffffffffff021916908373ffffffffffffffffffffffffffffffffffffffff16021790555060006001819055506104b0806100686000396000f3fe608060405260043610610083576000357c0100000000000000000000000000000000000000000000000000000000900463ffffffff16806302d05d3f1461008857806306ae19a2146100df5780632847a7af1461016157806341affd45146101b45780639bf52776146101df578063b10d6b411461020a578063cbfe6d411461028c575b600080fd5b34801561009457600080fd5b5061009d6102df565b604051808273ffffffffffffffffffffffffffffffffffffffff1673ffffffffffffffffffffffffffffffffffffffff16815260200191505060405180910390f35b3480156100eb57600080fd5b506101186004803603602081101561010257600080fd5b8101908080359060200190929190505050610304565b604051808373ffffffffffffffffffffffffffffffffffffffff1673ffffffffffffffffffffffffffffffffffffffff1681526020018281526020019250505060405180910390f35b34801561016d57600080fd5b5061019a6004803603602081101561018457600080fd5b8101908080359060200190929190505050610348565b604051808215151515815260200191505060405180910390f35b3480156101c057600080fd5b506101c96103e4565b6040518082815260200191505060405180910390f35b3480156101eb57600080fd5b506101f46103ea565b6040518082815260200191505060405180910390f35b34801561021657600080fd5b506102436004803603602081101561022d57600080fd5b81019080803590602001909291905050506103f4565b604051808381526020018273ffffffffffffffffffffffffffffffffffffffff1673ffffffffffffffffffffffffffffffffffffffff1681526020019250505060405180910390f35b34801561029857600080fd5b506102c5600480360360208110156102af57600080fd5b810190808035906020019092919050505061044e565b604051808215151515815260200191505060405180910390f35b6000809054906101000a900473ffffffffffffffffffffffffffffffffffffffff1681565b60026020528060005260406000206000915090508060000160009054906101000a900473ffffffffffffffffffffffffffffffffffffffff16908060010154905082565b60006103538261044e565b1561036157600090506103dc565b6000600260008481526020019081526020016000209050338160000160006101000a81548173ffffffffffffffffffffffffffffffffffffffff021916908373ffffffffffffffffffffffffffffffffffffffff16021790555042816001018190555060016000815480929190600101919050555060019150505b809050919050565b60015481565b6000600154905090565b600080600260008481526020019081526020016000206001015491506002600084815260200190815260200160002060000160009054906101000a900473ffffffffffffffffffffffffffffffffffffffff169050915091565b60008060026000848152602001908152602001600020600101541115610477576001905061047c565b600090505b80905091905056fea165627a7a72305820bf274adc66424c432e3cc2e064ba358cda67233883f1f0db835ef1e6261d50240029",
  "source": "pragma solidity ^0.5.0;\n\ncontract DocVerify {\n    \n    struct Document {\n        address owner;\n        uint date;\n    }\n    \n    address public creator;\n    uint public numDocuments;\n    mapping(bytes32 => Document) public documentHashMap;\n    \n    constructor() public {\n        creator = msg.sender;\n        numDocuments = 0;\n    }\n    \n    function newDocument(bytes32 hash) public returns (bool success) {\n        if (documentExists(hash)) {\n            success = false;\n        }else {\n            Document storage d = documentHashMap[hash];\n            d.owner = msg.sender;\n            d.date = now;\n            numDocuments++;\n            success = true;\n        }\n        return success;\n    }\n    \n    function documentExists(bytes32 hash) public view returns (bool exists) {\n        if (documentHashMap[hash].date > 0) {\n            exists = true;\n        } else {\n            exists = false;\n        }\n        return exists;\n    }\n    \n    function getDocument(bytes32 hash) public view returns (uint date, address owner) {\n        date = documentHashMap[hash].date;\n        owner = documentHashMap[hash].owner;\n    }\n\n    function getNumDocs() public view returns (uint numDocs) {\n        return numDocuments;\n    }\n}",
  "sourcePath": "C:/Users/lucas.vieira/Desktop/Projetos/doc-verify/contracts/DocVerify.sol",
  "compiler": {
    "name": "solc",
    "version": "0.5.0+commit.1d4f565a.Emscripten.clang"
  },
  "schemaVersion": "3.0.2",
  "updatedAt": "2019-02-25T14:05:53.670Z",
  "devdoc": {
    "methods": {}
  },
  "userdoc": {
    "methods": {}
  }
}